:100000000C94700D0C94980D0C94980D0C94980D04
:100010000C94980D0C94980D0C94980D0C94980DCC
:100020000C94980D0C94980D0C943E110C94B011F6
:100030000C94980D0C94980D0C94980D0C94980DAC
:100040000C94980D0C94980D0C94980D0C94980D9C
:100050000C94980D0C94980D0C94980D0C947114AC
:100060000C94980D0C94980D0C94980D0C94980D7C
:100070000C94980D0C94980D0C94980D0C94980D6C
:100080000C94980D0C94980D0C94980D0C94980D5C
:100090000C94980D0C94980D0C94980D0C94980D4C
:1000A0000C94980D0C94980D0C94980DF0F89C8E6F
:1000B0008783878E9CF8F00000FEFF030303030391
:1000C000070EFCF80000FEFF0303030303070EFC0A
:1000D000F80000FFFF00000000000000FFFF00002C
:1000E000FEFF8383838383C7EE7C380000F8FC0E19
:1000F00007030303070EFCF800003F7FE0C0808089
:10010000C0E07F3FFFFF01010101010101FFFF008E
:1001100000FFFF0C0C0C0C1C3E77E3C100007FFFBE
:10012000C0C0C0C0C0E0703F1F00001F3F70E0C0F3
:10013000C0C0E0703F1F00007FFFC1C1C1C1C1E36B
:10014000773E1C00001F3F70E0C0C0C0E0703F1F42
:10015000000000000001FFFF01000000D5F08D1439
:10016000A1C881CFD9F1AF20000000183C7EFF006C
:10017000000000000000000000000000000000007F
:1001800000000000000000000000000000C0F0FCC3
:100190003F00000000000000000000000000000020
:1001A000000000000000000000C0F0FCFFFFFFFFA7
:1001B000000000000000000000000000000000003F
:1001C0000000000000C0F0FCFFFFFFFFFFFFFF008A
:1001D000000000000000000000000000000000001F
:1001E00000C0F0FCFFFFFFFFFFFFFFFFFFFF070066
:1001F00000000000000000000000000000C0F0FC53
:10020000FFFFFFFFFFFFFFFFFFFFFFFFFF1F0000DC
:10021000000000000000000000C0F0FCFFFFFFFF36
:10022000FFFFFFFFFFFFFFFFFFFFFFFFFF000000DB
:100230000000000000C0F0FCFFFFFFFFFFFFFFFF1A
:10024000FFFFFFFFFFFFFFFFFFFFFFFF00000000BA
:1002500000C0F0FCFFFFFFFFFFFFFFFFFFFFFFFFFE
:10026000FFFFFFFFFFFFFFFFFFFFFF030000000096
:10027000003FFCF0C0000000000000000000000093
:10028000000000000000000000000000000000006E
:100290000000FFFFFFFFFCF0C000000000000000B6
:1002A000000000000000000000000000000000004E
:1002B000000000FFFFFFFFFFFFFFFCF0C000000099
:1002C000000000000000000000000000000000002E
:1002D00000000007FFFFFFFFFFFFFFFFFFFFFCF035
:1002E000C00000000000000000000000000000004E
:1002F000000000001FFFFFFFFFFFFFFFFFFFFFFFEA
:10030000FFFFFCF0C0000000000000000000000043
:100310000000000000FFFFFFFFFFFFFFFFFFFFFFE8
:10032000FFFFFFFFFFFFFCF0C00000000000000027
:10033000000000000000FFFFFFFFFFFFFFFFFFFFC7
:10034000FFFFFFFFFFFFFFFFFFFFFCF0C00000000B
:1003500000000000000003FFFFFFFFFFFFFFFFFFA3
:10036000FFFFFFFFFFFFFFFFFFFFFFFFFFFFFCF0AF
:10037000C0000000000000000000000000000000BD
:1003800000E02020202020202020202020202020CD
:10039000E00000000000000000000000000000007D
:1003A000000000000000000000000000000000004D
:1003B000000000000000000000000000000000003D
:1003C000000000000000000000000000000000002D
:1003D000000000000000000000000000000000001D
:1003E000000000000000000000000000000000000D
:1003F00000000000000000000000000000000000FD
:1004000000FF00006060606062666CF8F0600000F1
:10041000FF000000000000000000000000000000DD
:1004200000000000000000000000000000000000CC
:1004300000000000000000000000000000000000BC
:1004400000000000000000000000000000000000AC
:10045000000000000000000000000000000000009C
:10046000000000000000000000000000000000008C
:10047000000000000000000000000000000000007C
:10048000003F20202020202024262321202020205F
:100490003F0000000000000000000000000000001D
:1004A000000000000000000000000000000000004C
:1004B000000000000000000000000000000000003C
:1004C000000000000000000000000000000000002C
:1004D000000000000000000000000000000000001C
:1006C000000000000000000000000000000080802A
:1006D000808080808080808080808080808000001A
:1006E000000000000000000000000000000000000A
:1006F00000F0F0F0F0F0F0F0F0F0F0F0F0F0F0F0EA
:10070000F0F0F0F0F0F0F0F0F0F0F0F0F0F0F0F0E9
:10071000F0F0F0F0F0F0F0F0F0F0F0F0F0F0F0F0D9
:10072000F0F0F0F0F0F0F0F0F0F0F0F0F0F0F0F0C9
:10073000F0F0F0F0F0F0F0F0F0F0F0F0F0F0F0F0B9
:10074000F0F0F0F0F0F0F0F0F0F0F0F0F0F0F3F3A3
:10075000F3F3F3F3F3F3F3030303030303030000DF
:100760000000000000000000000000000000000089
:100770000000000000000000000000000000000079
:100780000000000000000000000000000000000069
:100790000000000000000000000000000000000059
:1007A00000000000008080C0C06020303090909039
:1007B000909090909010103060C0808000000000F9
:1007C0000000000000000000000000000000000029
:1007D0000000000000000000000000000000000019
:1007E0000000000000000000000000000000000009
:1007F00000000000000000000000000000000000F9
:1008000000000000000000000000000000000000E8
:1008100000000000000000000000000000000000D8
:1008200000F01C0643A15000F80C062311C9C8C8EB
:10083000000000C8C9C913260CF800030EF0000020
:1008400000000000000000000000000000000000A8
:100850000000000000000000000000000000000098
:100860000000000000000000000000000000000088
:100870000000000000000000000000000000000078
:100880000000000000000000000000000000000068
:100890000000000000000000000000000000000058
:1008A00000011FF0810221F02366CC98F00101E1E4
:1008B000080CE00101F198CC466330180C070000E9
:1008C0000000000000000000000000000000000028
:1008D0000000000000000000000000000000000018
:1008E0000000000000000000000000000000000008
:1008F00000000000000000000000000000000000F8
:1009000000000000000000000000000000000000E7
:1009100000000000000000000000000000000000D7
:1009200000000000010301010000000007040407AB
:100930000404070404070000000000000000000099
:1009400000000000000000000000000000000000A7
:100950000000000000000000000000000000000097
:100960000000000000000000000000000000000087
:100970000000000000000000000000000000000077
:10098000000000000000000000FF01017949090992
:10099000FF0000FF0101951111FF0000CF4979010F
:1009A000017949CF0000FF0103E644E60301FF009F
:1009B000000000FF0101C14941417F0000FF01012A
:1009C000951111FF0000FF010179790101FF00007D
:1009D000FF4141490909FF0000000000000000003C
:1009E0000000000000000000000000000000000007
:1009F00000000000000000000000000000000000F7
:100A000000000000000000000003020202020202D7
:100A100003000003020203020203000003020202B9
:100A200002020203000003020203000302020300A9
:100A300000000003020203000000000000030202A5
:100A4000030202030000030202020202020300008A
:100A50000302020202020300000000000000000086
:100A60000000000000000000000000000000000086
:100A70000000000000000000000000000000000076
:100A80000000000000000000000000000000000066
:100A90000000000000000000000000000000000056
:100AA0000000000000000000000000000000000046
:100AB0000000000000000000000000000000000036
:100AC0000000000000000000000000000000000026
:100AD0000000000000000000000000000000000016
:100AE0000000000000000000000000000000000006
:100AF00000000000000000000000000000000000F6
:100B000000000000000000000000000000000000E5
:100B100000000000000000000000000000000000D5
:100B200000000000000000000000000000000000C5
:100B300000000000000000000000000000000000B5
:100B400000000000000000000000000000000000A5
:100B50000000000000000000000000000000000095
:100B60000000000000000000000000000000000085
:100B700000FFFFFFFF7FFFFF0F0FFFFF7FFFFFFF64
:100B8000FFFFFFFFFFFEFCF9F0F0F9FCFEFFFFFFA7
:100B9000FFFFFF0303830303F3F30303830303FF55
:100BA000FFFFFFC0C0C1C3C6CFCFC6C3C1C0C0FF17
:100BB000FFFFFFFFFF7F3F1F4F6F7F7F7FFFFFFF25
:100BC000FFFFFFFFFFFEFCF8F2F6FEFEFEFFFFFF59
:100BD000FFFFFF030383C3E3B3938383830303FF15
:100BE000FFFFFFC0C0C1C3C7CDC9C1C1C1C0C0FFE5
:100BF000FFFFFFFFFF7F3F9F0F0F9F3F7FFFFFFF25
:100C0000FFFFFFFFFFFEFFFFF0F0FFFFFEFFFFFF14
:100C1000FFFFFF030383C363F3F363C3830303FF94
:100C2000FFFFFFC0C0C1C0C0CFCFC0C0C1C0C0FFA8
:100C3000FFFFFFFFFF7F7F7F6F4F1F3F7FFFFFFFA4
:100C4000FFFFFFFFFFFEFEFEF6F2F8FCFEFFFFFFD8
:100C5000FFFFFF030383838393B3E3C3830303FF94
:100C6000FFFFFFC0C0C1C1C1C9CDC7C3C1C0C0FF64
:100C7000FF0000008080C043EEFBFAEF40C00000A0
:100C80000000000080C0F8CC07030387CCF9C30044
:100C90000000000060C08286DCF6F4DE80C07800D0
:100CA0000000000080C0F0D80F07078FD8F0C00008
:100CB00000000000000000000000C0FCFFFFFCF08E
:100CC000C000000000000000000000000000000064
:100CD000C0FCFFFFFFFFFFFFFFFFFCF0C0000000B4
:100CE000000000000000C0FCFFFFFFFFFFFFFFFF50
:100CF000FFFFFFFFFFFFFCF0C0000000000000004E
:100D000000C0F0FCFFFFFCC000000000000000007D
:100D10000000000000C0F0FCFFFFFFFFFFFFFFFF2F
:100D2000FCC000000000000000C0F0FCFFFFFFFF5F
:100D3000FFFFFFFFFFFFFFFFFFFFFCC00000000001
:100D400000000060607E7E78787C7C70700000FF20
:100D5000FF00000000464E7E7E4E4600000000FF71
:100D6000FF0000FF7E3C18000000000000000000B3
:100D70000000000000000000000000000000000073
:100D80000000000000000000000000000000000063
:100D9000000000000000FFFF000000000000000055
:100DA00000000054AA04F214129492143264C09FFA
:100DB0000004F21412949294921412F40204F214A5
:100DC0001274C284F21412F40204F2141294929473
:100DD000929492F40204F21412949294929492F4E3
:100DE0000254AA0000000000000000000000000003
:100DF00000000000000000000000000000000000F3
:100E000000000000000000000000000000000000E2
:100E1000000000000000FFFF0000000000000000D4
:100E200000000055AA00FF0000FF81C37E0000FF04
:100E30000000FF0000CF4848CF0000FF0000FF0087
:100E400000808001010000FF0000FF0000FF0000A3
:100E5000000000000000FF0000E724242424243CBC
:100E60000055AA0000000000000000000000000083
:100E70000000000000000000000000000000000072
:100E80000000000000000000000000000000000062
:100E9000000000000000FFFF000000000000000054
:100EA000000000552A402F4828492948AC4603F93C
:100EB00000008F48484F40404F48484F8000EFE8BF
:100EC000E8EFE1E3EEE8E8EF0000EFE8E8E9E9E960
:100ED000E9E9E9EF0000EFE80809E9E90909E9EFC4
:100EE0000055AA0000000000000000000000000003
:100EF00000000000000000000000000000000000F2
:100F000000000000000000000000000000000000E1
:100F1000000000000000FFFF0000000000000000D3
:100F2000000000000000000000000000AA5500FFC3
:100F30000000FF00080808492A1C0800FF00FFFF06
:100F4000FFFCFCFCECEFEFEF0000FFFFFFFFC1C177
:100F5000FFFFFFFF0000FFFF0000FFFF0000FFFF9B
:100F60000055AA0000000000000000000000000082
:100F70000000000000000000000000000000000071
:100F80000000000000000000000000000000000061
:100F9000000000000000FFFF000000000000000053
:100FA0000000000000000000000000000A1500FF23
:100FB00000100811091109110911091108100B136A
:100FC0000B1308100B130B1308100B130B130B133D
:100FD0000B130B1308100B130B130B130B130B1327
:100FE00008150A00000000000000000000000000DA
:100FF00000000000000000000000000000000000F1
:1010000000000000000000000000000000000000E0
:10101000000000000000FFFF0000000000000000D2
:10102000000000000000000080406070787C7E7F3F
:101030007F7F7F7F7F7F7F7F7F7F7F7FFFFFFFDFE0
:10104000CFC7C3C1C1C1C1C1C1C1C1C1C1C1C1C17A
:10105000C1416171797D7F7F7F7F7F7F7F7F7F7FD0
:101060007F7F7F7FFFFFFFDFCF00000000000000D9
:101070000000000000000000000000000000000070
:101080000000000000000000000000000000000060
:10109000000000000000FFFF000000000000000052
:1010A00080C0E0F0F8F4F2F1F0F0F0F0F0F0F0F0E1
:1010B000F0F0F0F0F0703010181C1E1F1F1F1F1FE3
:1010C0001F1F1F1F1F1F1F1F9FDFFFFFFFF7F3F1D2
:1010D000F0F0F0F0F0F0F0F0F0F0F0F0F070301030
:1010E000181C1E1F1F1F1F1F1F00000000000000F4
:1010F00000000000000000000000000000000000F0
:1011000000000000000000000000000000000000DF
:10111000000000000000FFFF8040201008040607C8
:1011200007070707070707070707070787C7E7F73F
:10113000FFFFFFFDFCFCFCFCFCFCFCFCFCFCFCFCE5
:10114000FC7C3C1C0C04060707070707070707077A
:101150000707070787C7E7F7FFFFFFFDFCFCFCFC5D
:10116000FCFCFCFCFCFCFCFCFC00000000000000A3
:10117000000000000000000000000000000000006F
:10118000000000000000000000000000000000005F
:10119000000000000000FFFF000000000000000051
:1011A00000000054AA04F214129492143264C09FF6
:1011B0000004F21412949294921412F40204F214A1
:1011C0001274C284F21412F40204F214129492946F
:1011D000929492F40204F21412949294929492F4DF
:1011E0000254AA00000000000000000000000000FF
:1011F00000000000000000000000000000000000EF
:1012000000000000000000000000000000000000DE
:10121000000000000000FFFF0000000000000000D0
:1012200000000055AA00FF0000FF81C37E0000FF00
:101230000000FF0000CF4848CF0000FF0000FF0083
:1012400000808001010000FF0000FF0000FF00009F
:10125000000000000000FF0000E724242424243CB8
:101260000055AA000000000000000000000000007F
:10127000000000000000000000000000000000006E
:10128000000000000000000000000000000000005E
:10129000000000000000FFFF000000000000000050
:1012A000000000552A402F4828492948AC4603F938
:1012B00000008F48484F40404F48484F8000EFE8BB
:1012C000E8EFE1E3EEE8E8EF0000EFE8E8E9E9E95C
:1012D000E9E9E9EF0000EFE80809E9E90909E9EFC0
:1012E0000055AA00000000000000000000000000FF
:1012F00000000000000000000000000000000000EE
:1013000000000000000000000000000000000000DD
:10131000000000000000FFFF0000000000000000CF
:10132000000000000000000000000000AA5500FFBF
:101330000000FF00080808492A1C0800FF00FFFF02
:10134000FFFCFCFCECEFEFEF0000FFFFFFFFC1C173
:10135000FFFFFFFF0000FFFF0000FFFF0000FFFF97
:101360000055AA000000000000000000000000007E
:10137000000000000000000000000000000000006D
:10138000000000000000000000000000000000005D
:10139000000000000000FFFF00000000000000004F
:1013A0000000000000000000000000000A1500FF1F
:1013B00000100811091109110911091108100B1366
:1013C0000B1308100B130B1308100B130B130B1339
:1013D0000B130B1308100B130B130B130B130B1323
:1013E00008150A00000000000000000000000000D6
:1013F00000000000000000000000000000000000ED
:1014000000000000000000000000000000000000DC
:10141000000000000000FFFF0000000000000000CE
:10142000000000000000000080C0E0D0C8C4C2C1BD
:10143000C1C1C1C1C1C1C1C1C1C1C1C1C1416171CC
:10144000797D7F7F7F7F7F7F7F7F7F7F7F7F7F7FB4
:10145000FFFFFFDFCFC7C3C1C1C1C1C1C1C1C1C18E
:10146000C1C1C1C1C141617179000000000000002B
:10147000000000000000000000000000000000006C
:10148000000000000000000000000000000000005C
:10149000000000000000FFFF00000000000000004E
:1014A00080402010181C1E1F1F1F1F1F1F1F1F1FE3
:1014B0001F1F1F1F9FDFFFFFFFF7F3F1F0F0F0F09A
:1014C000F0F0F0F0F0F0F0F0F0703010181C1E1F8B
:1014D0001F1F1F1F1F1F1F1F1F1F1F1F9FDFFFFF1C
:1014E000FFF7F3F1F0F0F0F0F00000000000000072
:1014F00000000000000000000000000000000000EC
:1015000000000000000000000000000000000000DB
:10151000000000000000FFFF80C0E0F0F8FCFEFDCE
:10152000FCFCFCFCFCFCFCFCFCFCFCFCFC7C3C1C1B
:101530000C0406070707070707070707070707073A
:1015400087C7E7F7FFFFFFFDFCFCFCFCFCFCFCFC95
:10155000FCFCFCFCFC7C3C1C0C0406070707070792
:10156000070707070707070787080B0002020201A2
:10157000000904000001020200000524001001051A
:101580002401010104240206052406000107058147
:101590000310004009040100020A000000070502D0
:1015A0000240000007058302400000040309041202
:1015B000010002EF020140412336800001010203D5
:1015C0000141726475696E6F204C4C430041726436
:1015D00075626F790000000000003E5B4F5B3E3E8D
:1015E0006B4F6B3E1C3E7C3E1C183C7E3C181C57CF
:1015F0007D571C1C5E7F5E1C00183C1800FFE7C373
:10160000E7FF0018241800FFE7DBE7FF30483A0641
:101610000E2629792926407F050507407F05253FAD
:101620005A3CE73C5A7F3E1C1C08081C1C3E7F1499
:10163000227F22145F5F005F5F06097F017F0066E3
:1016400089956A606060606094A2FFA29408047E3D
:10165000040810207E201008082A1C08081C2A08EC
:10166000081E101010100C1E0C1E0C30383E3830A6
:10167000060E3E0E06000000000000005F000000A5
:1016800007000700147F147F14242A7F2A122313D3
:1016900008646236495620500008070300001C22E7
:1016A00041000041221C002A1C7F1C2A08083E0819
:1016B000080080703000080808080800006060001A
:1016C00020100804023E5149453E00427F4000720E
:1016D000494949462141494D331814127F10274585
:1016E0004545393C4A4949314121110907364949A3
:1016F0004936464949291E000014000000403400C4
:101700000000081422411414141414004122140877
:1017100002015909063E415D594E7C1211127C7F2F
:10172000494949363E414141227F4141413E7F493D
:101730004949417F090909013E414151737F080828
:10174000087F00417F41002040413F017F08142273
:10175000417F404040407F021C027F7F0408107F91
:101760003E4141413E7F090909063E4151215E7FCC
:1017700009192946264949493203017F01033F409F
:1017800040403F1F2040201F3F4038403F63140827
:10179000146303047804036159494D43007F4141B8
:1017A000410204081020004141417F04020102046B
:1017B0004040404040000307080020545478407FD8
:1017C000284444383844444428384444287F385412
:1017D00054541800087E090218A4A49C787F0804B9
:1017E000047800447D40002040403D007F102844A4
:1017F0000000417F40007C047804787C0804047871
:101800003844444438FC1824241818242418FC7C38
:1018100008040408485454542404043F44243C401D
:1018200040207C1C2040201C3C4030403C44281080
:1018300028444C9090907C4464544C4400083641B9
:101840000000007700000041360800020102040297
:101850003C2623263C1EA1A161123A4040207A3842
:1018600054545559215555794121545478412155A5
:1018700054784020545579400C1E527212395555F7
:101880005559395454545939555454580000457CCD
:10189000410002457D420001457C40F0292429F0A9
:1018A000F0282528F07C545545002054547C547C65
:1018B0000A097F4932494949323248484832324A56
:1018C0004848303A4141217A3A42402078009DA070
:1018D000A07D39444444393D4040403D3C24FF24F0
:1018E00024487E4943662B2FFC2F2BFF0929F62025
:1018F000C0887E090320545479410000447D413062
:1019000048484A32384040227A007A0A0A727D0DED
:1019100019317D2629292F28262929292630484DA5
:101920004020380808080808080808382F10C8ACF4
:10193000BA2F102834FA00007B000008142A142261
:1019400022142A14089500220095AA005500AAAA7C
:1019500055AA55AA000000FF00101010FF00141433
:1019600014FF001010FF00FF1010F010F0141414FA
:10197000FC001414F700FF0000FF00FF1414F4042F
:10198000FC141417101F10101F101F1414141F0024
:10199000101010F0000000001F101010101F101089
:1019A0001010F010000000FF101010101010101098
:1019B00010FF10000000FF140000FF00FF00001FD8
:1019C00010170000FC04F414141710171414F40476
:1019D000F40000FF00F714141414141414F700F7A3
:1019E000141414171410101F101F141414F41410CE
:1019F00010F010F000001F101F0000001F14000066
:101A000000FC140000F010F01010FF10FF1414146C
:101A1000FF141010101F00000000F010FFFFFFFF68
:101A2000FFF0F0F0F0F0FFFFFF0000000000FFFF0C
:101A30000F0F0F0F0F38444438447C2A2A3E147E7F
:101A400002020606027E027E026355494163384463
:101A5000443C04407E201E2006027E020299A5E737
:101A6000A5991C2A492A1C4C7201724C304A4D4DD2
:101A7000303048784830BC625A463D3E49494900BA
:101A80007E0101017E2A2A2A2A2A44445F444440D6
:101A9000514A444040444A51400000FF0103E08065
:101AA000FF000008086B6B083612362436060F0953
:101AB0000F06000018180000001010003040FF0151
:101AC00001001F01011E00191D1712003C3C3C3C87
:101AD00000000000000102040810204080008D1D5D
:101AE00011241FBECFEFDAE0DEBFCDBF11E0A0E0D2
:101AF000B1E0EAE9FEE302C005900D92A43FB10710
:101B0000D9F726E0A4EFB1E001C01D92A439B207D5
:101B1000E1F71DE0C0E7DDE004C02197FE010E946F
:101B2000401FCF36D107C9F70E9442160C944B1FB5
:101B30000C940000FC0180910E02811103C08FEF14
:101B40009FEF08959FB7F89482E08093E900209179
:101B5000F20030E01216130614F421E030E02115F3
:101B6000310559F0289884E680930D028091F100A8
:101B700080838091F200882319F09FBFC9010895E6
:101B80008BE68093E800F9CF2FB7F89483E0809339
:101B9000E9009091E800892F807295FF04C0909130
:101BA000F20080E4891B2FBF0895CF93DF931F922B
:101BB000CDB7DEB76983DC01ED91FC910280F38142
:101BC000E02D41E050E0BE016F5F7F4F09950F901F
:101BD000DF91CF91089583E08093E9008091F20036
:101BE000882319F08AE38093E80008950E94C40DC9
:101BF00090E00895CF93DF931F92CDB7DEB7FC013D
:101C00008485958597FD05C02FEF3FEF35872487A5
:101C10000BC0CE0101960E949A0D019719F489819B
:101C200090E002C08FEF9FEF0F90DF91CF9108956A
:101C30000F931F93CF93DF931F92CDB7DEB78C0125
:101C4000FC018485958597FF0EC0CE0101960E9408
:101C50009A0D019719F4298130E002C02FEF3FEF70
:101C6000F80135872487F801848595850F90DF91E9
:101C7000CF911F910F910895FC018485958597FD63
:101C80000BC09FB7F89482E08093E9008091F20046
:101C90009FBF90E0019608959FB7F89482E08093EB
:101CA000E9008091F2009FBF90E00895009769F0ED
:101CB000FC0101900020E9F73197AF01481B590B57
:101CC000BC018FE096E00C94E01380E090E0089572
:101CD0008F929F92AF92BF92CF92DF92EF92FF923C
:101CE0000F931F93CF93DF935C016B017A01809177
:101CF0001E01882309F45BC080910E02882309F439
:101D000056C080910C0280FF05C08091E000826087
:101D10008093E000E70110E00AEF83E0882E9AE369
:101D2000992E2097D9F10E94C40D81110AC001504B
:101D300009F43DC061E070E080E090E00E9437145B
:101D4000F0CF282F30E0C217D3070CF48C2F4FB7F9
:101D5000F8948092E9009091E80095FF1DC0282F2B
:101D600030E0C21BD30BF601982F915020F08191E7
:101D70008093F100FACFC20ED31E112319F0909276
:101D8000E80009C08091E80085FD06C09092E80057
:101D900011E0209709F010E04FBFC3CF1111C3CF5E
:101DA0005D9884E680930B021E141F0444F081E0CA
:101DB00090E0F5019383828380E090E001C0C70149
:101DC000DF91CF911F910F91FF90EF90DF90CF9017
:101DD000BF90AF909F908F9008952F923F924F9217
:101DE0005F926F927F928F929F92AF92BF92CF92AB
:101DF000DF92EF92FF920F931F93CF93DF93CDB7B4
:101E0000DEB728970FB6F894DEBF0FBECDBF5A01DC
:101E1000822E912C9C01280D391D37FDC4C08038BD
:101E200091050CF0C0C09B01200F311D37FDBBC0D8
:101E3000603471050CF0B7C0AB0177FF04C04427D4
:101E40005527461B570B477055279B0177FF02C04C
:101E5000295F3F4FE3E035952795EA95E1F777FF56
:101E600008C02150310968E070E0DB01A41BB50B0C
:101E7000AD01602F66956695669570E0077011F06C
:101E80006F5F7F4FDB01A20FB31FBA83A9833901B4
:101E90007694762C662477946794680E791EE12CEC
:101EA000F12C00E010E02301B0E84B0E511C68E07B
:101EB00070E0DB01A41BB50BBC83AB8369817A8125
:101EC0002617370709F46FC02830310509F46BC0B5
:101ED0002F3FBFEF3B070CF45BC0B201600F711FD7
:101EE000DB01A15FBD4FBE83AD83D801A60DB71D39
:101EF000A15FBD4F6C0160E070E0681579050CF0E2
:101F000047C0E0E8CE16D10409F442C0D7FC34C083
:101F10002F3FFFEF3F0709F442C0FB01EE0DFF1D0D
:101F2000EA0DFB1DE491042E01C0EE0F0A94EAF7BE
:101F30003C90E329EC9341155105F1F02730310530
:101F4000D9F0FB01EE0DFF1DEA0DFB1DE4912E2ED5
:101F5000312CF1010B8002C0F595E7950A94E2F768
:101F6000F887EF83ED81FE813080EF81F885E329EA
:101F70001F01ED81FE8120826F5F7F4FED81FE8129
:101F80003196FE83ED83FFEFCF1ADF0A1196B5CFAE
:101F90002F5F3F4F00581F4FE80CF91C8FCF4115A2
:101FA000510579F6E9CF28960FB6F894DEBF0FBE3B
:101FB000CDBFDF91CF911F910F91FF90EF90DF90F8
:101FC000CF90BF90AF909F908F907F906F905F90D9
:101FD0004F903F902F9008950C94560E80910F02D1
:101FE0008EBDE0E1F2E081910DB407FEFDCF8EBD24
:101FF00086E0EF30F807B9F70DB407FEFDCF08957E
:1020000080E0EFE0F2E081118FEF00248193819373
:10201000819381930394D1F7089520911906282381
:1020200029F490911806982381E009F480E008953E
:102030008F929F92AF92BF920F931F93CF93DF9394
:10204000CDB7DEB7A1970FB6F894DEBF0FBECDBFF8
:1020500019A2423008F44AE08E010F5D1F4F842E12
:10206000912CA12CB12CA50194010E94E71EE62F12
:10207000B901CA0101501109EA3014F4E05D01C050
:10208000E95CD801EC93232B242B252B61F7C801A5
:102090000E94560EA1960FB6F894DEBF0FBECDBFBC
:1020A000DF91CF911F910F91BF90AF909F908F9034
:1020B0000895AF92BF92CF92DF92EF92FF920F936B
:1020C0001F93CF93DF937B01EC015C01A40EB11C45
:1020D0006B01C20ED11CCA15DB05ECF48701F7FEBB
:1020E00010C000E010E00DC00817190794F4C038C4
:1020F000D10528F441E0B801CE010E94F0140F5F31
:102100001F4FC60121E4C216D10474F380E490E0AD
:10211000EBCF2196E0CFDF91CF911F910F91FF90F0
:10212000EF90DF90CF90BF90AF90089580913106EF
:1021300081110DC082E080932D0684E080932E06ED
:102140001092300610922F0681E0809331068DE2C6
:1021500096E0089540918D0650918E0620918B0651
:1021600030918C0642175307B4F49091E8009570B3
:10217000E1F39091E80092FD19C08093F100809105
:102180008D0690918E0601968F739927892B19F4ED
:102190008EEF8093E80080918D0690918E060196D7
:1021A00090938E0680938D0681E0089580E00895D7
:1021B000DF92EF92FF920F931F93CF93DF93D82E6E
:1021C0008A017B01E40EF51EEB01CE15DF0571F0EF
:1021D000D7FE03C0FE01849101C088810E94AA102D
:1021E00021968111F2CF8FEF9FEF01C0C801DF91DF
:1021F000CF911F910F91FF90EF90DF900895615064
:1022000030F02091F100FC0120830196F8CF28984E
:1022100084E680930D0208950F931F93CF93DF936D
:102220001F92CDB7DEB782E0898342E450E069E6D1
:1022300075E180E80E94D8100E949610DC01129689
:102240000D911C9113970115110569F0D801ED91BD
:10225000FC910280F381E02DBE016F5F7F4FC801CA
:10226000099597FF07C089810F90DF91CF911F914A
:102270000F910895F80100851185E5CF1F920F9207
:102280000FB60F9211248F939F938091E10090914C
:10229000E100937F9093E10083FF0FC01092E9006B
:1022A00091E09093EB001092EC0092E39093ED009C
:1022B00010920E0298E09093F00082FF20C093E00D
:1022C0009093E9009091F200992319F09AE390938A
:1022D000E80090910B02992339F090910B029150F4
:1022E00090930B02992389F190910D02992339F073
:1022F00090910D02915090930D02992341F184FF2A
:1023000010C08091E2008E7E81608093E200809117
:10231000E1008F7E8093E10080910C028E7E8061CF
:1023200011C080FF16C08091E2008E7E8061809394
:10233000E2008091E1008E7E8093E10080910C02AA
:102340008E7E816080930C0204C05D9ACDCF289A66
:10235000D6CF9F918F910F900FBE0F901F90189521
:102360001F920F920FB60F921124CF92DF92EF922D
:10237000FF920F931F932F933F934F935F936F930E
:102380007F938F939F93AF93BF93EF93FF93CF93DD
:10239000DF93CDB7DEB76C97DEBFCDBF1092E900FB
:1023A0008091E80083FFEDC168E0CE0145960E9470
:1023B000FF1082EF8093E8008D8987FF05C0909120
:1023C000E80090FFFCCF03C09EEF9093E800982FA9
:1023D000907609F0C6C09E892F89188D91110CC086
:1023E000803829F480918A068093F10002C010920F
:1023F000F1001092F10048C1422F50E0512B913072
:1024000051F4811141C14130510509F03DC1809124
:102410008A068D7F0BC0933061F4811135C1413044
:10242000510509F031C180918A06826080938A0645
:102430002BC1953041F48091E80080FFFCCF2068EB
:102440002093E30021C1963009F05FC0EB8CFC8C37
:102450001092E90010928E0610928D06123091F5BE
:1024600010928C0610928B060E940C1199E0BE010E
:102470006F5F7F4FDB01E92F1D92EA95E9F79983A2
:102480001A8391E09E8390EA98879AEF998720912A
:102490008D0630918E06275F3F4F3C832B838D83C3
:1024A0001092E90010928E0610928D06F0928C0622
:1024B000E0928B0649E050E080E00E94D8100E9434
:1024C0000C11E2C0F0928C06E0928B060E949610EE
:1024D000DC011296ED90FC901397E114F10409F4DD
:1024E000C0C0D701ED91FC910480F581E02DBE01C3
:1024F0006B5E7F4FC7010995009719F00CF0C4C0BF
:10250000C7C0F701E084F184E8CF973009F4C0C078
:10251000983021F481E08093F100B6C0993009F041
:10252000B3C0837009F0B4C0EEE4F1E081E021E0D3
:1025300036E39081992361F08093E9002093EB00CA
:1025400091919093EC003093ED008F5F873089F785
:102550008EE78093EA001092EA008F8980930E0242
:1025600093C08B8D9C8D1092E90010928E06109274
:102570008D0690938C0680938B06898D811156C0B1
:102580008E899D89913A59F4813209F081C047E0E2
:1025900050E067E171E080E00E94D81075C0913290
:1025A00009F076C0833289F4888D90E0982F8827CF
:1025B0002F89822BA0E0B0E080931F01909320012F
:1025C000A0932101B09322015FC0803269F4809111
:1025D000E80082FFFCCF67E087E191E00E94FF10F6
:1025E0008BEF8093E80006C0823209F04DC08F89DE
:1025F00080931E0180918906882319F0EEEFFAE09E
:1026000002C0E0E0F8E08091170190911801A091DC
:102610001901B0911A01803B9440A105B10509F060
:102620007BC080911E0180FF93C076C00E949610EF
:10263000DC0112960D911C9113970115110541F1C2
:10264000D801ED91FC910190F081E02DBE016B5E0F
:102650007F4FC8010995811117C0F80100851185C8
:10266000ECCF113009F44EC0133091F48F898823D8
:1026700009F445C0823081F440E867E08DEC95E1D3
:102680000E94C21D882321F08EEF8093E80079C05C
:1026900081E28093EB0075C0813029F440E86BE063
:1026A00081EC95E1EDCF833099F70E949610DC0123
:1026B0001296ED90FC9013978E010F5F1F4F6801EB
:1026C000E114F10479F0D701ED91FC910680F781D6
:1026D000E02DB801C7010995080F111DF701E0842D
:1026E000F184EECFD8011C92F60101900020E9F7A9
:1026F0003197BF016C197D0940E0C601C1CF6BEA7B
:1027000075E102C06FEA75E16115710509F2FB011F
:10271000449150E080E840CF0FB6F894A89580919E
:102720006000886180936000109260000FBEA895E1
:10273000EE3F2AE0F20739F08091FE0A9091FF0AFD
:1027400091838083A1CF1092FF0A1092FE0A9CCF42
:10275000EE3F8AE0F80731F0808191819093FF0A83
:102760008093FE0A87E797E7918380839BE088E167
:102770000FB6F894A895809360000FBE9093600008
:1027800083CF6C960FB6F894DEBF0FBECDBFDF913E
:10279000CF91FF91EF91BF91AF919F918F917F91D9
:1027A0006F915F914F913F912F911F910F91FF90EA
:1027B000EF90DF90CF900F900FBE0F901F90189565
:1027C000CF92DF92EF92FF920F931F93CF93DF93FD
:1027D0006C017A018B01C0E0D0E0CE15DF0589F0F5
:1027E000D8016D918D01D601ED91FC910190F081A0
:1027F000E02DC6010995892B11F47E0102C02196B6
:10280000ECCFC701DF91CF911F910F91FF90EF9017
:10281000DF90CF9008950895089580E090E00895A6
:102820000E94461F3FB7F8948091900690919106C0
:10283000A0919206B091930626B5A89B05C02F3FA4
:1028400019F00196A11DB11D3FBFBA2FA92F982FD6
:102850008827820F911DA11DB11DBC01CD0142E051
:10286000660F771F881F991F4A95D1F708958F9299
:102870009F92AF92BF92CF92DF92EF92FF926B0145
:102880007C010E9412144B015C01C114D104E104CB
:10289000F104F1F00E941214DC01CB0188199909AE
:1028A000AA09BB09883E9340A105B10570F321E058
:1028B000C21AD108E108F10888EE880E83E0981E5C
:1028C000A11CB11CC114D104E104F10419F7DDCF3E
:1028D000FF90EF90DF90CF90BF90AF909F908F9040
:1028E00008951F920F920FB60F9211242F933F93CA
:1028F0008F939F93AF93BF938091F4019091F501D3
:10290000A091F601B091F70130918F0623E0230FDB
:102910002D3720F40196A11DB11D05C026E8230F17
:102920000296A11DB11D20938F068093F401909310
:10293000F501A093F601B093F70180919006909174
:102940009106A0919206B09193060196A11DB11D2A
:102950008093900690939106A0939206B09393066D
:10296000BF91AF919F918F913F912F910F900FBE8B
:102970000F901F9018952D9A0895BC0180E090E06B
:102980000C9437148FB12CB193B130E02095309571
:1029900020743327A90123E0559547952A95E1F73F
:1029A000292F30E0209530952071332735952795D4
:1029B00035952795242B8095807F822B089583B7AA
:1029C000817F83BF83B7816083BF889583B78E7F04
:1029D00083BF08958EBD00000DB407FEFDCF08959E
:1029E000E5EDFAE190E1969FD001A0781124A80FBF
:1029F0006770E60FF11D9491A15FBD4F442319F05C
:102A00008C91982B03C090958C9198239C9308955A
:102A10002F923F924F925F926F927F928F929F92EE
:102A2000AF92BF92CF92DF92EF92FF920F931F93DC
:102A3000CF93DF93CDB7DEB727970FB6F894DEBFFD
:102A40000FBECDBFFC016A3069F4248D808D918D5D
:102A500038E0239F800D911D1124918F808F178A5C
:102A6000168AA6C06D3009F4A3C09F838E83348C70
:102A7000238D2983328D3A83608C718CE688F788A8
:102A800080E8E816F104C4F0AE81BF815C962C9119
:102A90005C97422F50E056968D919C915797B6E0E7
:102AA0002B9F800D911D1124EE81FF81978B868BCA
:102AB000258D211167C07CC0F0E46F16710424F7E6
:102AC000C70125E0329E800D911D112418161906AC
:102AD000DCF6432C512CC30138E0339E800D911D50
:102AE00011241816190684F685E0689F80011124C8
:102AF0000B521A4E20E0F8012490253009F4212CC5
:102B0000430158E020FC02C0398101C03A813111F3
:102B10000BC0F9818A81F81307C026945150840CA8
:102B2000951C5111EFCF25C067018C2D8E1983158F
:102B3000A0F754018A2D88198315B8F490E8C916B6
:102B4000D10478F4A0E4AA16B10458F4432FB501D7
:102B5000C6012C833B835D830E94F0145D813B8121
:102B60002C81BFEFAB1ABB0AE5CFEFEFCE1ADE0A1E
:102B7000DCCF2F5FE40CF51C0F5F1F4F263009F0F0
:102B8000BACF82CF6AEF64039001659F300D1124A4
:102B900020583F4F281739075CF4AE81BF81ED9173
:102BA000FC9111970190F081E02D6AE0CD0109952B
:102BB00081E090E027960FB6F894DEBF0FBECDBF40
:102BC000DF91CF911F910F91FF90EF90DF90CF9009
:102BD000BF90AF909F908F907F906F905F904F903D
:102BE0003F902F900895CF92DF92EF92FF920F9334
:102BF0001F93CF93C0E084E0C82ED12CE12CF12CA0
:102C000080911501C81770F40C2F10E00E94911EDE
:102C1000A70196010E94B51EF801E65FFE4F608392
:102C2000CF5FEECF10921201CF911F910F91FF90C5
:102C3000EF90DF90CF9008951092F801E2E0F1E07C
:102C400095E088E08E0F91938E13FDCF08959091BB
:102C5000F801209115019217A0F42091F901222387
:102C600081F0292F30E0F901E65FFE4F40814813E3
:102C70000C941C169F5F9093F801F901EE5FFE4FD4
:102C800040830895CF93DF9300D000D0CDB7DEB757
:102C9000789484B5826084BD84B5816084BD85B537
:102CA000826085BD85B5816085BD80916E00816043
:102CB00080936E00109281008091810082608093E9
:102CC00081008091810081608093810080918000EB
:102CD0008160809380008091910082608093910058
:102CE000809191008160809391008091900081603B
:102CF000809390008091C10084608093C100809196
:102D0000C10082608093C1008091C1008160809386
:102D1000C1008091C30081608093C3008091C00096
:102D200082608093C0008091C20081608093C20065
:102D300080917A00846080937A0080917A0082602A
:102D400080937A0080917A00816080937A008091EC
:102D50007A00806880937A0010920E0210928A06A0
:102D600010920C028091D70081608093D70080EA96
:102D70008093D80089B5806189BD89B5826089BD9D
:102D800009B400FEFDCF61E070E080E090E00E94B9
:102D900037148091D8008F7C80618093D800809117
:102DA000E000807F8093E0008091E1008E7E809340
:102DB000E1008DE08093E200559A209AEEEFFFE764
:102DC000859194918B3F9C4D19F481E08093890605
:102DD00081EC80937C0085B1806F85B9249884B1A3
:102DE000866E84B95E9A5F988AB1806D8AB9769A48
:102DF0006E9881B3806F81BB899880B38D7080BBE2
:102E000080E58CBD81E08DBD85E090E00E94BD1421
:102E10005F9A85E090E00E94BD145E985C98ACE5F6
:102E2000EA2EA1E0FA2E1DE01E0DF70184910E940A
:102E3000EA14FFEFEF1AFF0A1E11F7CF5C9A81E840
:102E40008093640081E08093650000E014E080E0FE
:102E50000E94EA1401501109D1F70E94C21487FFA1
:102E60001FC05C9885EA0E94EA145C9A2E982F98FD
:102E70002D98809164008062809364000E94DF142A
:102E8000FDCF2D980E94C2148478843871F00E947E
:102E9000C2148471843131F188EC90E00E94BD1439
:102EA0000E94C21482FDEDCF3AC00E94BB1488EC90
:102EB00090E00E94BD142F9882E090E00E949F1E37
:102EC0008F3F29F06FEF82E090E00E94A71E84EF11
:102ED00091E00E94BD142F9A0E94C2148478843815
:102EE000D9F3D5CF0E94BB1488EC90E00E94BD14AA
:102EF0002E9882E090E00E949F1E882329F060E0D7
:102F000082E090E00E94A71E84EF91E00E94BD1431
:102F10002E9A0E94C21484718431D9F3BDCF0E94CD
:102F2000BB1482E090E00E949F1E882331F03E9AFD
:102F30003F9A81E08093FA0104C01092FA013E9812
:102F40003F982E98FEEEEF2EFF24FA940E94C214B2
:102F500086FF04C02E9A2F9A2D9A3FC02CEFE216BE
:102F60002FEFF20619F42E9A2F9806C038E1E316D7
:102F7000F10411F42F9A2D980E94001000E128E529
:102F80004CEA50E0B70184E190E00E94ED0E0E940F
:102F9000EE0F8BE190E00E94BD1480EFE8168FEFFA
:102FA000F80621F48AEF90E00E94BD149FEFE91A21
:102FB000F90AE9E1EE16F10449F68CEB92E00E9481
:102FC000BD140E94BB14E0911306F0911406019009
:102FD000F081E02D83E196E0099582E390E00E9484
:102FE000BD140E94C2148111F8CF89E280931A06A1
:102FF000809164008E7F8093640080917A00806469
:1030000080937A0080917A0086FDFCCFC090780092
:10301000D09079000E941214E12CF12C7601DD246D
:10302000CC246C0D7D1D8E1D9F1D611571058105C4
:10303000910511F00E94961E80916400816080933A
:1030400064008AE091E018E0180F52E3A52EB12C3D
:1030500020E3422E512C38E2832E912C45E0642E41
:10306000712C2FB7F8948091F4019091F501A09103
:10307000F601B091F7012FBF40911F065091200635
:10308000609121067091220620912306222341F0AF
:1030900020911B06821B8093240610922306F1C404
:1030A00084179507A607B70738F4481B423008F481
:1030B000E8C40E94DF14E5C421E020932306809336
:1030C0001B0690931C06A0931D06B0931E0620912C
:1030D0001A06820F911DA11DB11D80931F069093AA
:1030E0002006A0932106B0932206809116069091A7
:1030F00017060196909317068093160600910A0210
:103100000F5F00930A020E9400101092280610928E
:1031100027061092260610922506809118068093A5
:1031200019060E94C21480931806809116018330FC
:1031300009F448C330F4813069F0823009F4A2C048
:103140009EC4853009F40BC308F4D9C2863009F453
:10315000E6C395C40F7091E009F090E080910902F8
:10316000890F8093090200E420E880FD03C049E64E
:1031700051E102C049E65DE060E070E080E090E08F
:103180000E94ED0E109226061092250684E190E032
:10319000909328068093270680910802811103C02E
:1031A00084E591E002C085E591E00E94EC0F109269
:1031B0002606109225068EE190E0909328068093D3
:1031C000270680910802813019F48AE591E002C057
:1031D0008BE591E00E94EC0F1092260610922506D6
:1031E000909228068092270680910802823019F476
:1031F00080E691E002C081E691E00E94EC0F6091D0
:103200000802E62EF12CFAE06F9FB00111246D5EEA
:103210007F4F08E028E041E65DE08EEF9FEF0E94DF
:10322000ED0E80E80E940D10882341F0C701029640
:1032300063E070E00E94181F8093080280E10E9402
:103240000D10882351F08091080290E0019663E010
:1032500070E00E94181F8093080288E00E940D1001
:10326000882309F40CC480910802811102C086E011
:1032700043C2813011F485E03FC2823009F0FFC3C0
:1032800084E03AC28091120181110E94F3153090BE
:10329000F901311011C08091070290E002968F77FA
:1032A000992780930702009709F06DC02091FF01D4
:1032B0002F5F2093FF0167C020901501822D82951A
:1032C000807F869520E4281B8AE091E09A83898399
:1032D00092E0C92E91E0D92EE12CF12CE22FF0E002
:1032E000FC83EB838C2DE2E0F1E08E1B821598F6D7
:1032F000E981FA818191FA83E98381110CC0F60199
:10330000808100E120E1882319F041E55CE02CC0D8
:1033100041E35CE029C0813061F4F601808100E185
:1033200020E1813019F041E15CE01EC041EF5BE03B
:103330001BC0823061F4F601808100E120E182301F
:1033400019F041ED5BE010C041EB5BE00DC0833054
:1033500099F4F601808100E120E1833019F041E920
:103360005BE002C041E75BE060E270E08B819C8142
:103370008E0D9F1D0E94ED0EF0E1EF0EF11C2FEF60
:10338000C21AD20AAFCF2091FF013320A9F020FF4B
:1033900024C0803691050CF583E08093140181E010
:1033A0008093150110920102809100028F5F80933B
:1033B00000021092F90111C020FF0FC08036910564
:1033C00061F401E00093F9010E941C1600931201C0
:1033D0000E94F3158FEF809314010091070280EE95
:1033E000800F853010F44AE001C046E080EC800F89
:1033F000853008F44AE080EA800F853020F00530FF
:1034000018F44AE001C040E1342F369523E066E32A
:1034100070E080E690E0831B91090E94591024E03F
:10342000402F6CE370E080E090E00E94591088E04B
:103430000E940D10F82E84E00E940D10282F30E01D
:10344000C9018F0D911D892BC1F18091F90188234C
:10345000A1F12091F8018091150128134BC382EA54
:10346000800F853008F015C3809105029091060207
:10347000F3E02F9F800D911D1124909306028093FD
:10348000050210921401809104028F5F8093040260
:103490001092F9018091150187708F5F809315015B
:1034A00020910102982F821708F4922F9093010225
:1034B000943008F02CC30E941C161092260610921D
:1034C00025065092280640922706809114018130EB
:1034D00059F038F0823059F0833069F48CE791E08C
:1034E00008C088E691E005C081E791E002C087E767
:1034F00091E00E94EC0F80E40E940D10882319F0E7
:1035000080E00E94271680E80E940D10882319F0A1
:1035100081E00E94271680E20E940D10882319F096
:1035200082E00E94271680E10E940D10882319F086
:1035300083E00E9427168091130190E02091FF0103
:10354000821B9109019711F41092F90180910702F1
:103550008F7149F48091FB019091FC010196909349
:10356000FC018093FB018091FB0108E128E180FFD1
:103570001FC049EF5CE062E070E080E590E00E94EF
:10358000ED0E28E141EB5CE062E070E087E190E065
:103590000E94ED0E00E120E141E95CE069E070E0AD
:1035A00088E390E00E94ED0E87E1E82EF12C16C032
:1035B00041EB5CE062E070E080E590E00E94ED0E9F
:1035C00028E149EF5CE062E070E087E190E00E9472
:1035D000ED0E00E120E141E75CE0E0CF41E069E190
:1035E00070E0C7010E94F01441E06AE170E0C70199
:1035F0000E94F0142FEFE21AF20A38E6E316F10403
:1036000069F708E020E141E55DE060E070E08EEF01
:103610009FEF0E94ED0E80E190E09093260680934C
:10362000250610922806109227068091FD019091A0
:10363000FE0120910502309106028217930728F4BB
:1036400001969093FE018093FD016091FD017091C0
:10365000FE0180E090E04AE00E94181008E020E1BE
:1036600041E45DE06AE070E08EEF9FEF0E94ED0EB6
:1036700080E190E090932606809325068AE090E012
:1036800090932806809327068091130190E0209163
:10369000FF01821B91096C01092E000CEE08FF0846
:1036A00097FF14C0E0910F06F09110060190F08191
:1036B000E02D6DE28FE096E0099566277727CB0134
:1036C0006C197D098E099F094AE003C04AE0C701D1
:1036D000B6010E9418109091FF0180911301981774
:1036E00008F4CDC189E280931A0668EE73E080E0A9
:1036F00090E00E94371483E080931601C0C100E47B
:1037000020E841E757E060E070E080E090E00E9450
:10371000ED0EE5E2F0E0F0932606E09325065092E8
:1037200028064092270682E891E00E94EC0F80E193
:1037300090E0909326068093250628E330E03093AE
:103740002806209327068CE891E00E94EC0F84E085
:103750000E940D10882309F492C181E0CDCF00E4CE
:1037600020E841E753E060E070E080E090E00E94F4
:10377000ED0E90922606809225068AE090E09093C6
:103780002806809327068DE991E00E94EC0F709245
:10379000260660922506E5E2F0E0F0932806E09325
:1037A00027068DEA91E00E94EC0F70922606609247
:1037B00025068DE290E090932806809327068EEBF5
:1037C00091E0C3CF00E420E241E752E060E070E026
:1037D00080E090E00E94ED0E20E241E751E060E0E1
:1037E00070E080E690E00E94ED0E29E130E0309339
:1037F000260620932506109228061092270680EDB3
:1038000091E00E94EC0F60910502709106026A300F
:10381000710548F06436710540F0683E33E0730787
:1038200030F482E105C086E003C08CE001C080E096
:103830008695E0E4F0E0E81BF109F0932606E093BA
:1038400025062FE030E0309328062093270680E0FD
:1038500090E04AE00E94181022E040E468E170E045
:1038600080E290E00E945910B0922606A0922506B0
:1038700088E390E090932806809327068EED91E0F0
:103880000E94EC0F6091000270E080E090E04AE05E
:103890000E941810B0922606A09225065092280683
:1038A0004092270682EE91E00E94EC0F60910202A6
:1038B00070E080E090E04AE00E941810B092260686
:1038C000A0922506909228068092270686EE91E027
:1038D0000E94EC0F6091030270E080E090E04AE00B
:1038E0000E941810B0922606A092250680E290E071
:1038F00090932806809327068AEE91E00E94EC0FB1
:103900006091040270E080E090E04AE00E941810AC
:1039100084E00E940D10811120CF88E019CF0F7034
:1039200091E009F090E080910902890F80930902EB
:1039300000E420E880FD03C049E651E102C049E609
:103940005DE060E070E080E090E00E94ED0E70923B
:1039500026066092250684E190E0909328068093E5
:1039600027068EEE91E00E94EC0FEFE0F0E0F0937E
:103970002606E09325068EE190E09093280680933A
:1039800027066091010170E080E090E04AE00E942B
:10399000181008E028E049E651E06EE170E080E0B0
:1039A00090E00E94ED0E28E041E65DE06EE170E0FF
:1039B0008FE190E00E94ED0E80E20E940D108823BE
:1039C00041F0809101018450843108F484E28093B5
:1039D000010180E40E940D10882341F080910101D3
:1039E0008C5F853208F084E18093010188E00E94B9
:1039F0000D10882309F4ABCE81E08093150110925D
:103A0000FF01A2E0B1E0EAE0F1E085E081938D936F
:103A10001E13FCCF1092F80181E0809312011092E6
:103A2000070288E7809300011092F9011092FE01CD
:103A30001092FD0110920602109205028FEF809302
:103A40001401109201021092FC011092FB0182E31A
:103A5000809313011092040210920302109202024A
:103A60001092000282E0809316016091010170E0E3
:103A700088EE93E00E94181F60931A0668CE0E9499
:103A8000EE0F80E090E0892B09F4EBCA0E94000061
:103A9000DFCA86EA800F8D30B8F44091050230917C
:103AA0000602842F932F820F911D820F911D9093F8
:103AB00006028093050281E0809314018091030245
:103AC0008F5F80930302E4CC0655053198F4809112
:103AD000050290910602820F911D90930602809339
:103AE000050282E080931401809102028F5F80932F
:103AF0000202CECC83E08093140110921501109243
:103B00000102809100028F5F80930002C1CC84305B
:103B100008F484E080931501CECCE9E3F6E013824B
:103B2000128288EE93E0A0E0B0E084839583A683C0
:103B3000B7838BE291E0918380838FEF9FEF95872E
:103B40008487EFE0F6E0138212821186128620E16C
:103B5000238790878783108A118A128A138A148A8E
:103B60008DE391E0918380838BE491E0958384835E
:103B7000178A168A118E108E81E0828F138E848FA1
:103B8000158E0895CF92DF92EF92FF920F931F93BD
:103B9000CF93DF931F92CDB7DEB7182F062FE42EF9
:103BA000862F880F8E5F99830E94AA1083E00E945F
:103BB000AA10F12EC12E9981D92E8C2D8F19801724
:103BC00098F4F601E7FE02C0849101C080810E9452
:103BD000AA10182F80E00E94AA108123FFEFCF1AAD
:103BE000DF0A8111EACF01C081E00F90DF91CF9110
:103BF0001F910F91FF90EF90DF90CF9008950F935A
:103C00001F93CF93DF938C0181E090E00E949F1E71
:103C100080FF31C08AE090E00E949F1E9FEF980FC6
:103C20009E3F48F522E330E0D80157963C932E930F
:103C3000569728E330E059963C932E935897CBE063
:103C4000D0E0D801ED91FC910190F081E02D682F3A
:103C5000C8010995CE010E949F1E2196C131D10550
:103C600081F70E94EE0F88EE93E0DF91CF911F91D4
:103C70000F910C94BD14DF91CF911F910F91089576
:103C800004970C94FF1D8F929F92AF92BF92CF9298
:103C9000DF92EF92FF92CF93DF93EC0168817981FD
:103CA0008A819B81611571058105910521F464E28A
:103CB00079ED8BE597E02DE133EF41E050E00E9494
:103CC000B51E49015A019B01AC01A7EAB1E40E946B
:103CD000D41E6B017C01ACEEB4EFA50194010E94EF
:103CE000E21EDC01CB018C0D9D1DAE1DBF1DB7FF7B
:103CF00003C00197A109B04888839983AA83BB8335
:103D0000BC01CD019F77DF91CF91FF90EF90DF90C5
:103D1000CF90BF90AF909F908F9008950E94431EC8
:103D2000089583E291E00E94431E08956093230169
:103D30007093240180932501909326010895F999A9
:103D4000FECF92BD81BDF89A992780B50895262FA0
:103D5000F999FECF1FBA92BD81BD20BD0FB6F89470
:103D6000FA9AF99A0FBE01960895052E97FB1EF454
:103D700000940E94CC1E57FD07D00E94E71E07FC4E
:103D800003D04EF40C94CC1E50954095309521955F
:103D90003F4F4F4F5F4F0895909580957095619577
:103DA0007F4F8F4F9F4F08950E94091FA59F900D31
:103DB000B49F900DA49F800D911D11240895B7FF0D
:103DC0000C94D41E0E94D41E821B930B0895A1E272
:103DD0001A2EAA1BBB1BFD010DC0AA1FBB1FEE1F85
:103DE000FF1FA217B307E407F50720F0A21BB30BD0
:103DF000E40BF50B661F771F881F991F1A9469F74C
:103E000060957095809590959B01AC01BD01CF01A7
:103E10000895A29FB001B39FC001A39F700D811DA3
:103E20001124911DB29F700D811D1124911D0895C3
:103E300097FB072E16F4009407D077FD09D00E9457
:103E40002C1F07FC05D03EF4909581959F4F089557
:103E5000709561957F4F0895AA1BBB1B51E107C068
:103E6000AA1FBB1FA617B70710F0A61BB70B881F0A
:103E7000991F5A95A9F780959095BC01CD01089599
:103E8000EE0FFF1F0590F491E02D099481E090E082
:0A3E9000F8940C944B1FF894FFCF38
:103E9A007818050505050505050505050505050542
:103EAA0005050132FF010100E1000000000000FFEA
:103EBA00FFFFFF0100000000000000D50D680EF6AC
:103ECA000DEB0D3C0EFA0D180E000000000815E06F
:103EDA00130D140C14FF1DFCFF0000401E00C180CE
:103EEA008100000020506C6179002048656C7000E8
:103EFA002043726564697400506572666563742153
:103F0A0000476F6F64210042616421004D69737339
:103F1A002100446576656C6F7065720056696E6340
:103F2A00656E74697573204D6164796100547970A6
:103F3A006520746865206172726F7721005072651E
:103F4A007373202841292F284229206F6E00746834
:103F5A006520636F72726563742062656174210003
:103F6A005B46494E414C2053434F52455D004D3A02
:103F7A002000423A2000473A2000503A200053706D
:043F8A006565640005
:00000001FF
